:020000040000FA
:1000000070020010650100006D0100006F0100002A
:1000100000000000000000000000000000000000E0
:10002000000000000000000000000000710100005E
:1000300000000000000000007301000075010000D6
:1000400077010000770100007701000077010000D0
:1000500077010000770100007701000077010000C0
:1000600077010000770100007701000077010000B0
:1000700077010000770100007701000077010000A0
:100080007701000077010000770100007701000090
:100090007701000077010000770100007701000080
:1000A0007701000077010000770100007701000070
:1000B0007701000077010000770100007701000060
:1000C00000F002F800F03EF80CA030C80838241800
:1000D0002D18A246671EAB4654465D46AC4201D180
:1000E00000F030F87E460F3E0FCCB6460126334274
:1000F00000D0FB1AA246AB46334318476004000009
:1001000080040000103A02D378C878C1FAD85207A8
:1001100001D330C830C101D504680C6070470000BD
:100120000023002400250026103A01D378C1FBD813
:10013000520700D330C100D50B6070471FB51FBDFB
:1001400010B510BD00F0DCF81146FFF7F7FF00F026
:10015000FBF900F0F4F803B4FFF7F2FF03BC00F082
:10016000FBF800000748804707480047FEE7FEE726
:10017000FEE7FEE7FEE7FEE704480549034A054BB4
:100180007047000095040000C100000070000010DE
:100190007002001070000010002203098B422CD363
:1001A000030A8B4211D300239C464EE003460B43C7
:1001B0003CD4002243088B4231D303098B421CD329
:1001C000030A8B4201D394463FE0C3098B4201D31B
:1001D000CB01C01A524183098B4201D38B01C01A53
:1001E000524143098B4201D34B01C01A52410309CA
:1001F0008B4201D30B01C01A5241C3088B4201D379
:10020000CB00C01A524183088B4201D38B00C01A25
:10021000524143088B4201D34B00C01A5241411A4C
:1002200000D201465241104670475DE0CA0F00D02F
:100230004942031000D34042534000229C46030928
:100240008B422DD3030A8B4212D3FC22890112BAAE
:10025000030A8B420CD3890192118B4208D3890186
:1002600092118B4204D389013AD0921100E089099E
:10027000C3098B4201D3CB01C01A524183098B427F
:1002800001D38B01C01A524143098B4201D34B0168
:10029000C01A524103098B4201D30B01C01A5241CB
:1002A000C3088B4201D3CB00C01A524183088B4252
:1002B00001D38B00C01A5241D9D243088B4201D3DB
:1002C0004B00C01A5241411A00D2014663465241C6
:1002D0005B10104601D34042002B00D549427047C5
:1002E00063465B1000D3404201B50020C046C046C3
:1002F00002BD70477047704770470000FFFFFFFF67
:10030000754600F025F8AE46050069465346C0081C
:10031000C000854618B020B5FFF72EFF60BC00274F
:100320004908B6460026C0C5C0C5C0C5C0C5C0C5C1
:10033000C0C5C0C5C0C5403D49008D46704710B519
:100340000446C046C0462046FFF705FF10BD00002A
:10035000004870470C00001001491820ABBEFEE7B2
:100360002600020070B504464348C06BFF210131EE
:1003700088434149C8637D21C9002046FFF70CFF2F
:100380003E49085C3C49C86300F0D4F83A48C06B69
:10039000FF21013108433849C863FF20C86308467C
:1003A000C06B0121490288433349C8637D21C900DC
:1003B0002046FFF7F1FE0D4664212846FFF7ECFECC
:1003C0002E49085C2C49C86300F0B4F82A48C06B79
:1003D0000121490208432849C863FF20C863084631
:1003E000C06B0121890288432349C8637D21C9006C
:1003F0002046FFF7D1FE0E4664213046FFF7CCFEC3
:100400000D460A212846FFF7C7FE1C49085C1A4919
:10041000C86300F08FF81848C06B012189020843B7
:100420001549C863FF20C8630846C06B0121C90293
:1004300088431149C8637D21C9002046FFF7ACFEFF
:100440000E467D21C9003046FFF7A6FE0D460A2163
:100450002846FFF7A1FE0948405C0749C86300F041
:1004600069F80548C06B0121C90208430249C86305
:10047000FF20C86370BD0000C03F025000000010A4
:1004800003480068FF2108430149086070470000E5
:100490000080025008B52548806B202188432349FD
:1004A0008863002022490862009003E000BF0098A2
:1004B000401C00900098C828F8D301201C49403106
:1004C00008604860002048600120486000BF18486C
:1004D00040304068C007C00F0028F8D023201449DE
:1004E00088601248806B802188431049886300BF70
:1004F0000F48C068C007C00F0028F9D003200C497E
:1005000040310863012048630020486301204863AC
:1005100000BF07484030406BC007C00F0028F8D02C
:10052000012003494031886308BD00000082044077
:10053000008004407D20400100BF0146421E90B271
:100540000029FAD170470000FFF79AFF02E0024845
:10055000FFF708FFFBE70000942600007C05000081
:10056000000000100C0000000401000088050000DD
:100570000C0000106402000020010000C0F9A4B0CB
:08058000999282F880900000BE
:04000005000000C136
:00000001FF
